:020000040800F2
:1000000008080020A9010008E32B0008412A000885
:10001000E12B000803140008C532000800000000AE
:10002000000000000000000000000000C52C0008D7
:100030003B14000800000000252C0008392D0008A2
:10004000C3010008C3010008C3010008C301000880
:10005000C3010008C30100083D140008C3010008E3
:10006000C3010008C3010008C3010008C301000860
:10007000C3010008C301000805140008C3010008FB
:10008000C3010008C3010008C3010008C301000840
:10009000C3010008C3010008C3010008C301000830
:1000A000C30100089D2D0008C3010008C30100081A
:1000B000C3010008C3010008C3010008C301000810
:1000C000C3010008C3010008C3010008C301000800
:1000D000C3010008B9320008C3010008C3010008C9
:1000E000C3010008C3010008C301000800F002F8C2
:1000F00000F04AF80AA090E8000C82448344AAF178
:100100000107DA4501D100F03FF8AFF2090EBAE875
:100110000F0013F0010F18BFFB1A43F0010318473B
:100120001C3900003C390000103A24BF78C878C15F
:10013000FAD8520724BF30C830C144BF04680C60ED
:10014000704700000023002400250026103A28BF35
:1001500078C1FBD8520728BF30C148BF0B60704739
:10016000662903F00A84642900F052800020704759
:100170001FB500F009FC04000020002103F01CF969
:10018000E0601FBD10B510BD00F0FEFC1146FFF78A
:10019000EFFF03F0C3F800F01CFD03B4FFF7F2FF1C
:1001A00003BC00F05FFD0000094880470948004794
:1001B000FEE7FEE7FEE7FEE7FEE7FEE7FEE7FEE717
:1001C000FEE7FEE704480549054A064B7047000074
:1001D000992D0008ED000008080200200808002002
:1001E00008040020080400200FB41CB5074B06AA21
:1001F0007B4469460090059800F0ADFB00206946FD
:1002000000F0BCFB1CBC5DF814FB0000890700007B
:100210002DE9F0410646002410687529314616A5DF
:1002200010D0AFF30080002802DA404213A507E0A7
:1002300031688A0701D512A502E0490704D511A546
:10024000012401E0AFF3008000210A2206F1240717
:1002500009E0B0FBF2FCB0FBF2F302FB1C00303013
:1002600078541846491C0028F3D123462A463046C4
:10027000BDE8F04100F001B9000000002D000000D1
:100280002B000000200000002DE9F0474FF0000A8D
:1002900089460446C0F820A02046E1688847002827
:1002A00076D0252806D0D4E901219047206A401C49
:1002B0002062F1E7E168204600268847C4F81CA0C8
:1002C00005460027C4F818A02A2D09D0284603F0B7
:1002D0001EF838B304EB8708303DC8F8185019E011
:1002E00059F8041B204604EB87029161E1688847B6
:1002F000012F054618D1E069002820DA26F02006F3
:100300001DE0D8F8180000EB800005EB4000303805
:10031000C8F818002046E1688847054602F0F7FF54
:100320000028EED1012F0AD02E2D08D12046E168F9
:1003300088477F1C0546022F46F02006C4DBA069D3
:10034000002803DA404246F00106A061F00701D020
:1003500026F010066C2D0AD0682D08D04C2D39D00F
:100360006A2D35D0742D35D07A2D33D016E0E16862
:100370002F4620468847B84205460AD16C2F27D021
:100380004FF48060E168064320468847054605E053
:1003900027E06C2F1AD04FF4807006430DB3A5F1FF
:1003A0004100192802D8203546F400664A462946FD
:1003B000204626604E46FFF7D3FE80B101280BD0C1
:1003C000F61D26F0070000F1080965E74020E4E784
:1003D0008020D7E70020D5E706F104095CE728462E
:1003E00061E7206ABDE8F08710B5431C02E010F811
:1003F000011B71B18107FAD14FF0013202C88C1A8A
:100400008C4314EAC211F9D0C01A0A0603D0C01EE8
:1004100010BDC01A10BD0A0401D0801E10BD090213
:10042000FCD0401E10BD4FF0000200B513469446AC
:100430009646203922BFA0E80C50A0E80C50B1F13C
:100440002001BFF4F7AF090728BFA0E80C5048BF50
:100450000CC05DF804EB890028BF40F8042B08BFEE
:10046000704748BF20F8022B11F0804F18BF00F8EA
:10047000012B70477047704770472DE9F0470D46D4
:1004800099469246044600F124080168880604D57E
:10049000E06921F01001216000E00120A84201DDA7
:1004A000471B00E00027A1697A1902EB0900081A2E
:1004B000A0612078C00602D42046AFF30080002659
:1004C00008E0D4E901211AF806009047206A401C90
:1004D000761C20624E45F4DB2078C0060AD5204603
:1004E000AFF3008006E0D4E9012130209047206A74
:1004F000401C2062381EA7F10107F4DC07E0D4E9B4
:10050000012118F805009047206A401C2062281E2F
:10051000A5F10105F3DC2046AFF30080207800064A
:1005200002D50220BDE8F0870120FBE770472DE9E6
:10053000FF4F0C461E464FF0FF378BB0D2E900014B
:10054000DDF860800A908A46C1F30A5505B93D4638
:10055000002108464FF00000BAF1000F00F44000FF
:1005600005DA00EB80004FF4400101EA50004FEA49
:100570009059B9F1010F00DDB9460A9850EA4A00D6
:100580000ED044F61050A5F2FF3545432F14B8F1B4
:10059000000F1ED07542291E1EDDC9F100021CE0AD
:1005A000B8F1010F4FF0000001D0302103E0F24319
:1005B00005E02154401CB042FBDB30460022002104
:1005C00021540B99C1F80880C1E900200FB0BDE8A3
:1005D000F08FBD1B6D1CDEE74A4600DA694206A8B3
:1005E00000F05CFA06AB93E8070003AB83E8070072
:1005F00050460A9900F03DFB8DE80700A0F5005039
:100600001F3800900398002D0ADD42F21F014A4670
:100610000844002303A90390684600F0A6FD09E002
:10062000A0F500504A461F38002303A903906846EE
:1006300000F0B0FD8DE807000004000C03D04FF07F
:10064000FF30410800E01046B8F1000F03D000224F
:10065000009215461EE0751E05D400F099F930325F
:1006600062556D1EF9D5B3460122084302D000221F
:100670007F1C04E02078302801D100227F1E002A50
:10068000099784D01DE0112D07DA00F081F930328E
:1006900062556D1C50EA0102F5D1084302D0009862
:1006A000C8B10EE00021681E05E0235C625C635463
:1006B0002254401E491C8142F7DBAB46A81B401E5A
:1006C0000990002004F80B000B98099AC0F80880E4
:1006D000C0E9002B7AE711264FF0000857E72DE913
:1006E000F04F88460446D21D22F0070191B0D1E9AF
:1006F0000001CDE90A0102F0E6FD02460B98C00FA9
:1007000001D02D2007E02068810701D52B2002E0D1
:10071000202101EAC000032A099001D0072A05DB45
:1007200003464146204600F079F90BE12078800627
:1007300001D5E06900E00620B8F1650F814606D0DA
:10074000B8F1660F18D0B8F1670F70D131E0002012
:10075000B9F1110F009001DB112301E009F1010350
:100760000AAA01A90CA8FFF7E2FEDDE90C70002639
:1007700009F10105834647E001204B4600904FF008
:1007800000470AAA01A90CA8FFF7D1FEDDE90DB0C8
:100790000C995D46002610B909F101000D18B9EB5E
:1007A000050003D4C0F1FF3609F10105A5EB0900EE
:1007B0002BE0B9F1010F01DA4FF001090020B9F186
:1007C000110F0090484601DD112300E003460AAAFC
:1007D00001A90CA8FFF7ABFEDDE90C704D46002621
:1007E0008346207800070AD4AB4500DA5D4601A8AD
:1007F000012D04DD411911F8011C302907D04F45A6
:1008000002DA17F1040F04DA012082460FE06D1EB0
:10081000EEE7002F02DCED1B3E4403E0781CA8420B
:1008200000DD7D1CB81B00F1010A4FF00047207865
:10083000000703D4AA4501DB4FF0FF3A0021B7F1CE
:10084000004F0DF143088DF8431024D002202B23D4
:10085000002F01DA7F422D230A21021EA0F10100A0
:1008600000DC5FB197FBF1FC97FBF1F201FB1C7C14
:1008700017460CF1300C08F801CDEEE7A8F10100A5
:1008800003702188090501D5452100E06521A0F10B
:10089000010800F8011C09980FA9A1EB0807FF1D2A
:1008A00000B10120411901EBEA70A1693844081A2E
:1008B000401EA0612078C00602D42046AFF300801D
:1008C000099828B1D4E901219047206A401C206290
:1008D0002078C00622D52046AFF300801EE0002E0F
:1008E00004DBB34502DD01A8805D00E03020D4E9DF
:1008F00001219047206A401C2062761CAAF1010069
:100900005FEA000A0AD100F03FF8C0680168405C65
:10091000D4E901219047206A401C2062281EA5F1DD
:100920000105DCDC07E0D4E9012118F8010B904750
:10093000206A401C2062381EA7F10107F3DC204624
:10094000AFF30080032011B041E6000001694A1CAA
:1009500002610878704700B58FB0CDE90131002100
:10096000059105497944CDE9031011466846FFF722
:100970008BFC0FB000BD0000E5FFFFFF0A6802F826
:10098000010B0A607047000000487047C801002052
:1009900030B5B0F10A024FEA900E71F100034EEA51
:1009A000817EB0EB0E0061EB91014FEA101E4EEA22
:1009B000017E10EB0E0041EB11114FEA102E4EEAB2
:1009C000016E10EB0E0041EB11214FEA104E4EEA82
:1009D000014E10EB0E0041EB1141401841F10001B6
:1009E0004FEAD00040EA41704FEAD10110EB800598
:1009F0004FEA810444EA907444EB01046D1944EB1E
:100A00000404521BA3414FF0000348BF0A3200D533
:100A100030BD401C41F1000130BD00002DE9F04126
:100A20001F46044603260168072A01F4006004DB20
:100A300008B116A505E016A503E008B115A500E06C
:100A400015A521F010002060A069C01EA0610FB1A3
:100A5000401EA0612046AFF300804FB1D4E90121D0
:100A600038469047206A401C2062C01C206206E085
:100A7000206AFAE7D4E9012115F8010B9047761EA8
:100A8000F8D22046AFF30080BDE8F0814E414E0021
:100A90006E616E00494E4600696E66002DE9F047B2
:100AA000814616468AB0354878440DC88DE80D0059
:100AB00032487844801C03AC0DC884E80D0041F630
:100AC0009B300844372190FBF1F290FBF1F5A5F142
:100AD000800501FB12041B3C02D56442012000E0AA
:100AE0000020DFF898A080460027FA44AAF1BE0A49
:100AF0000EE0E0070AD03246684607EB47010123C3
:100B00000AEB810100F046FB8DE8070064107F1CB2
:100B1000002CEED1194F7F44AE3F19E0E80715D005
:100B200007EB04100DF1180A90E80E008AE80E0099
:100B3000C068F04201D1981908903246012306A9F5
:100B400003A800F027FB03AB83E807006D10641CCB
:100B5000002DE3D14FF0010332466946B8F1000F92
:100B600003A802D000F001FB01E000F013FBC9E98B
:100B70000001C9F808200AB0BDE8F087782F00000E
:100B800000487047A80100207546FFF7F9FFAE4600
:100B900005006946534620F00700854618B020B589
:100BA000FFF710FBBDE820404FF000064FF00007B4
:100BB0004FF000084FF0000B21F00701AC46ACE805
:100BC000C009ACE8C009ACE8C009ACE8C0098D4672
:100BD000704710B50446AFF300802046BDE81040D2
:100BE000FFF7DBBA4FF0013C50F8042B51F8043BFF
:100BF0009A4221D1A2EB0C03934313EACC1317D1F1
:100C000050F8042B51F8043B9A4215D1A2EB0C0387
:100C1000934313EACC130BD150F8042B51F8043B47
:100C20009A4209D1A2EB0C03934313EACC13DBD015
:100C30004FF00000704700BFD01A01BAB1FA81F13D
:100C400001F0180122FA01F0CB40C1F12001DBB222
:100C5000C0B2C01A2CFA01F3D11A914311EAC311A0
:100C6000E6D1704701491820ABBEFEE7260002001E
:100C700070475FEA400C08BF91F0000F4FEA8C23E9
:100C80004FEAC12243EA51514FEA1C5018BF00F508
:100C9000F0404FEA300018BF41F000415FEA6C5C61
:100CA00000F02980BCF1FF3F08BF40F08040704752
:100CB000130C06BF12044FF0100C4FF0000C130E73
:100CC00004BF12020CF1080C130F04BF12010CF147
:100CD000040C930F04BF92000CF1020CD30F04BF5D
:100CE00052000CF1010C11464FF00002A0F11F0060
:100CF000A0EB0C00704711F0004F08BF704731F0B7
:100D000000413FF4D5AF0B0C06BF09044FF0100CA7
:100D10004FF0000C0B0E04BF09020CF1080C0B0F76
:100D200004BF09010CF1040C8B0F04BF89000CF106
:100D3000020CCB0F04BF49000CF1010CCCF12003D5
:100D4000A0EB0C0022FA03F302FA0CF241EA0301D1
:100D500000F10100704720F07F4C80EA030023F08F
:100D60007F47ACEB070303F57C5300F0004003F131
:100D7000FF032DE980494FEA154B09B44FEA1443AC
:100D800025EA0B4E24EA03480FF2042606EB13274C
:100D900049083E785FEA320203FB0667C7F50007A1
:100DA00007FB06F64FEA54374FEAD64606F102062D
:100DB00007FB066CCCF1005C4FEA1C472CEA074CA1
:100DC00007FB06F40CFB06F504EB15464FEA9616F6
:100DD00034BF00204FF000404FEAD13706FB07FC3C
:100DE0004FEA1C4C0CFB0BF7D21B03FB0CF761EB1F
:100DF00007010CFB0EF7B0EB074072EB17420CFB40
:100E000008F734BFA2EB0742B2EB074261EB174190
:100E10004FEA0C444FEA910706FB07FC4FEA1C4CD3
:100E20000CFB0BF7B0EBC74072EB573203FB0CF730
:100E300034BFA2EBC742B2EBC74261EB57310CFBA8
:100E40000EF7B0EBC70072EB57720CFB08F734BF1C
:100E5000A2EBC702B2EBC70261EB5771039F4FEAE7
:100E6000816141EA921104EBCC044FEAD1374FEA99
:100E7000826206FB07FC42EA90124FEA80604FEA6A
:100E80001C4C0CFB0BF7D21B03FB0CF761EB0701AF
:100E90000CFB0EF7B0EB074072EB17420CFB08F7A8
:100EA00034BFA2EB0742B2EB074261EB17414FEAB6
:100EB0008C554FEA910704EB9C2406FB07FC4FEA94
:100EC0001C4C0CFB0BF7B0EBC74072EB573203FB2B
:100ED0000CF734BFA2EBC742B2EBC74261EB57310C
:100EE0000CFB0EF7B0EBC70072EB57720CFB08F768
:100EF00034BFA2EBC702B2EBC70261EB577115EB2F
:100F00004C254FEA816141EA92114FEA82624FEA31
:100F1000D13742EA901206FB07FC44F100044FEA85
:100F200080604FEA1C4C0CFB0BF7D21B03FB0CF749
:100F300061EB07010CFB0EF7B0EB074072EB1742B9
:100F40000CFB08F734BFA2EB0742B2EB074261EBA0
:100F5000174115EB1C154FEA813141EA92414FEAE6
:100F6000823242EA90424FEA80304FEA0C7644F1F6
:100F7000000448EA03434EEA0B484FF0000EB2EB80
:100F8000080C71EB030724BF624639464EEB0E0E88
:100F90004FF0000B0018524149414BEB0B0BB2EBE9
:100FA000080C71EB03077BF1000B24BF6246394646
:100FB0004EEB0E0E4FF0000B0018524149414BEB27
:100FC0000B0BB2EB080C71EB03077BF1000B24BF9A
:100FD000624639464EEB0E0E51EA020718BF46F044
:100FE000010616EB0E7655F1000254F1000103D50F
:100FF000BDE88901BDE80088BDE88901BDE8004879
:10100000B619524141EB0101A3F101037047808001
:101010007F7E7D7C7B7A7978777676757473727152
:1010200071706F6E6E6D6C6C6B6A6A69686867660A
:1010300066656464636362616160605F5F5E5E5D9C
:101040005D5C5C5B5B5A5A59595858575756565510
:1010500055555454535352525251515050504F4F72
:101060004F4E4E4D4D4D4C4C4C4B4B4B4A4A4A49C2
:101070004949484848474747474646464545454405
:101080004444444343434342424242414141002B92
:101090009C4630D477002BD01CB54FEA370703B4F9
:1010A0004FF010004FF01001BAF1000F06D0BCF164
:1010B000000FDCBF40F0080040F008014FF00000D6
:1010C0000FBCBDE810400BF1010BBBF1010F08BFD5
:1010D0005FEA170722BF12F1010211F101014FF07F
:1010E000004143F1000300F0004043EA0000704774
:1010F000F9D35708D0E746EA064613F1400F4FEA06
:1011000016461FDD13F1200FDFBF16430A460021EC
:1011100020335B42BED0C3F1200746EA064602FAFE
:1011200007F74FEA164646EA0706C3F1200722FAF8
:1011300003F201FA07F721FA03F14FF0000342EA44
:101140000702A7E746EA020646EA06464FEA1646BF
:1011500046EA0106BCBF46EA0646360C4FF00003DD
:101160004FF000024FF0000194E72DE9804C9A46C1
:10117000934670B491E8380007C831EA400C48BF84
:1011800034EA430C03D5FFF7E6FDFFF780FFF0BC20
:10119000BDE8008C2DE9804C9A46934670B491E8E6
:1011A000380007C810F0804F08BF13F0804F03D1FC
:1011B00000F005F8FFF76BFFF0BCBDE8008C20F0F5
:1011C0007F4780EA030023F07F4C07EB0C03A3F575
:1011D0007C5300F00040A3F1FE0392F0000F00F0FA
:1011E000B38095F0000F00F077802DE901494FEAB8
:1011F00011404FEA144621EA004800FB06FC24EAAD
:10120000064708FB06F607FB08F800FB07F718EB94
:1012100006484CEB164C4FEA124B18EB07484FEAC6
:1012200015464CEB174022EA0B4E0BFB06FC25EA59
:1012300006470EFB06F607FB0EFE0BFB07F71EEB41
:10124000064E4CEB164C4FF000061EEB074E4CEBD7
:10125000174B18EB0B0840F1000018EB0E0B58EB86
:10126000000840F100008F1A4FF000013CBFC94355
:10127000661B14BFB5EB040C00213CBFC943F61B31
:101280004FEA17444EEA8E0E27EA04454FEA1C4700
:1012900004FB07622CEA074C05FB07F70CFB05F67D
:1012A00004FB0CFC16EB074642EB174216EB0C4610
:1012B00042EB1C421BEB060658EB0202414146EA98
:1012C0009E0601D5BDE80189B619524141EB0101E5
:1012D000A3F10103BDE801894FEA14454FEA114724
:1012E00024EA054621EA074C05FB07F406FB07F74D
:1012F0000CFB06F105FB0CFC11EB074144EB17441A
:101300004FEA124711EB0C4144EB1C4422EA074C14
:1013100005FB07F206FB07F70CFB06F605FB0CFCCA
:1013200016EB074642EB174216EB0C4642EB1C4508
:101330006A1854F1000148BF7047B619524141EB99
:101340000101A3F10103704795F0000F37D04FEA78
:1013500011424FEA144721EA024624EA074C02FBF5
:1013600007F106FB07F70CFB06F402FB0CFC14EB81
:10137000074441EB17414FEA154714EB0C4441EB8E
:101380001C4125EA074C02FB07F506FB07F70CFB9F
:1013900006F602FB0CFC16EB074645EB174516EB71
:1013A0000C4645EB1C42121951F1000148BF704731
:1013B000B619524141EB0101A3F1010370474FEA15
:1013C00014454FEA114724EA054621EA074C05FB7C
:1013D00007F106FB07F70CFB06F24FF0000605FBD2
:1013E0000CFC12EB074241EB174112EB0C4251EBA4
:1013F0001C4148BF7047921841EB0101A3F1010362
:101400007047FEE7014800F08DB80000640100203D
:1014100030B590F840500124AC40C56B6C60046856
:1014200063604368102B036803D099600068C26052
:1014300030BD9A600068C16030BD7047012000F087
:10144000A7B972B6FEE710B590F821100022022964
:1014500005D00421816380F82020012010BD01689F
:101460000B6823F00E030B6001680B6823F0010387
:101470000B6090F84030C46B012101FA03F3636004
:1014800080F8211080F82020104610BD10B590F88B
:1014900021100024022903D00421816301243DE0AE
:1014A00001680A6822F00E020A6001680A6822F0E8
:1014B00001020A601A4A0168914201D1012121E02A
:1014C000174A1432914201D110211BE0144A2832EC
:1014D000914201D1891515E0114A3C32914201D166
:1014E00089140FE00E4A5032914202D14FF48031FC
:1014F00008E00B4A6432914202D14FF4801101E0BE
:101500004FF08071064A083A5160012180F821109D
:10151000002180F82010416B01B18847204610BDA2
:10152000080002402DE9F05FC16B0C6801680B6890
:10153000D0F840C0042202FA0CF2494DDFF824A191
:10154000494E4A4FDFF828B1DFF828E122422CD07B
:101550005A072AD50A68920603D40A6822F00402C0
:101560000A600168A94201D1042219E0514501D164
:10157000402215E0B14202D14FF4806210E0B9423E
:1015800002D14FF480420BE0594502D14FF4802242
:1015900006E0714502D14FF4800201E04FF0806215
:1015A0002F4908394A60C16A3BE04FF0020808FA47
:1015B0000CF818EA040F4FF000094FF0010235D083
:1015C0005FEA837832D50B689B0605D40B6823F05D
:1015D0000A030B6080F821200168A94201D1022290
:1015E00019E0514501D1202215E0B14202D14FF45A
:1015F000007210E0B94202D14FF400520BE059459D
:1016000002D14FF4003206E0714502D14FF40012CE
:1016100001E04FF00072124908394A6080F82090CA
:10162000816A00291AD0BDE8F05F0847082505FA4D
:101630000CF5254212D01B0710D50B6823F00E03C2
:101640000B6090F84010C36B02FA01F1596082639D
:1016500080F8212080F82090016BE2E7BDE8F09F40
:10166000080002401C0002403000024044000240DA
:10167000580002406C00024030B528B308C8134936
:1016800014221944B1FBF2F18900C163104981634E
:10169000022141771A6843F6F0718A43D0E90014B9
:1016A0002143D0E902452C43214304692143446985
:1016B00021438469214311431960002141630122C0
:1016C00042770177084630BD012030BDF8FFFDBFED
:1016D0000000024070B5044690F820000025012863
:1016E0000CD0012084F8200094F821600020012E05
:1016F00006D084F820000225284670BD022070BD67
:10170000022684F82160A0632068066826F001069E
:1017100006602046FFF77CFEE06A0028206801682A
:1017200002D041F00E0106E021F0040101602068C2
:10173000016841F00A0101602068016841F001017F
:101740000160D9E770B5044600F028F90546601C31
:1017500002D004480078044400F020F9401BA04265
:10176000FAD370BD3C00002010B5012809D1022138
:10177000054800F009F905490028086802D0401C16
:10178000086010BD401EFBE700080140000000207B
:10179000044910B50A68024202D00860FFF7E4FF6E
:1017A00010BD0000140401402DE9F84FDFF8B89196
:1017B0000024A9F1040B23460F2709F1040AABF119
:1017C000040EC9E00125A5402A40AA427DD1674EFA
:1017D000D1F804C0ACEB0608B44532D014DCBCF13F
:1017E000030F3AD009DCBCF1000F2AD0BCF1010F85
:1017F0001CD0BCF1020F31D11DE0BCF1110F17D08C
:10180000BCF1120F2AD119E0B8F5881F19D006DCF7
:10181000B8F5803F15D0B8F5801F1FD111E0B8F59D
:10182000001F0ED0B8F5041F18D10AE0CB6815E0F0
:10183000CB681B1D12E0CB6808330FE0CB680C337C
:101840000CE08B682BB1012B4FF0080303D04561EE
:1018500004E0042302E0056100E00023FF2A01D830
:10186000064601E000F104064FEA840501D9A5F11E
:101870002005D6F8008007FA05FC28EA0C0803FAD0
:1018800005F548EA0508C6F800804D68ED0062D508
:10189000374DAE6946F00106AE61AD6924F003062E
:1018A00005F001050095334D06EB050CDCF80850FA
:1018B000A607360F07FA06F825EA0805DFF8B8800C
:1018C000404503D14FF0000817E044E0DFF8AC805A
:1018D000404502D14FF001080FE0DFF8A4804045F9
:1018E00002D14FF0020808E0DFF89880404502D1AD
:1018F0004FF0030801E04FF0040808FA06F848EA40
:101900000508CCF808804D68D9F80060ED024D4616
:1019100001D5164300E096432E604D68DAF800606A
:10192000AD02554601D5164300E096432E604D6842
:10193000DBF80060AD035D4601D5164300E0964339
:101940002E604D68DEF80060ED03754601D5164344
:1019500000E096432E60641C0D682A46E5407FF443
:1019600031AFBDE8F88F00000804014000001110FD
:10197000001002400000014000080140000C01403E
:1019800000100140001401408068084000D0012090
:1019900070470AB1016170470904FBE7014880689C
:1019A000704700003C000020024881680278114422
:1019B000816070473C000020074810B5016841F085
:1019C00010010160032000F075F80F2000F006F808
:1019D00000F024F8002010BD0020024070B50D4D2D
:1019E00004464FF47A712878B1FBF0F00A4909688F
:1019F000B1FBF0F000F0DCFA48B9102C07D200225D
:101A00002146501E00F036F800206C6070BD0120A9
:101A100070BD00003C000020480000200C4808B5C4
:101A2000816941F001018161816901F00101009149
:101A3000C16941F08051C161C06900F080500090DF
:101A40000448416821F0E06141F00071416008BD47
:101A50000010024000000140002809DB00F01F02D6
:101A6000012191404009800000F1E020C0F8001100
:101A700070470000F0B40E4B1B680C46C3F3022302
:101A8000C3F10705042D00D90425191D072901D22A
:101A9000002300E0DB1E012606FA05F1491E214065
:101AA00099409E40761E16403143F0BC01F01FBCA9
:101AB0000CED00E0064900F0070208684FF6FF034E
:101AC000184040EA0220034A1043086070470000B3
:101AD0000CED00E00000FA052DE9F0470F46050087
:101AE00061D0434E306800F00700B84209D2306838
:101AF00020F0070038433060306800F00700B8423B
:101B000051D128683B4C810712D5400703D5606846
:101B100040F4E06060602878000703D5606840F416
:101B2000605060606068A96820F0F0000843606061
:101B30002878C00728D06868012810D021680228BA
:101B400010D0890700292EDA616821F003010143D2
:101B50006160FFF723FF804641F288390DE021687C
:101B60008903EFE78901EDE7FFF718FFA0EB080114
:101B7000494502D90320BDE8F0876068696800F034
:101B80000C00B0EB810FEFD1306800F00700B842D5
:101B90000BD9306820F0070038433060306800F01F
:101BA0000700B84201D00120E5E72878400705D5B5
:101BB0006068E96820F4E060084360602878000706
:101BC00006D56068296920F4605040EAC100606071
:101BD00000F038F86168084AC1F30311515CC8404D
:101BE0000649086006480068FFF7F8FE0020C2E7D3
:101BF00000200240001002409039000848000020F8
:101C0000400000200448054900684968044AC1F3BF
:101C10000221515CC840704748000020001002407B
:101C2000A03900080448054900684968044AC1F31E
:101C3000C221515CC840704748000020001002409B
:101C4000A03900080E4A51680E4801F00C03042B1D
:101C500011D0082B0FD10C48C1F38343C903C05CDA
:101C60000AD55168084AC1F34041921E515C054AA9
:101C70005043B0FBF1F070470449484370470000FF
:101C80000010024000127A008039000800093D006F
:101C90002DE9F84F040070D02078C04DC00749D01E
:101CA0006868C0F38100012807D06868C0F381002C
:101CB000022809D16868C00306D52868800339D591
:101CC00060680028E7D035E06068B0F5803F0BD051
:101CD00010B1B0F5A02F11D0286820F48030286012
:101CE000286820F4802002E0286840F480302860D2
:101CF000606890B1FFF752FE06460AE0286840F49B
:101D000080202860F0E700BFFFF748FE801B6428B2
:101D100073D828688003F7D50CE0FFF73FFE06462E
:101D200005E000BFFFF73AFE801B6428F0D8286862
:101D30008003F7D420789A4E80074FF001094FF0C6
:101D4000000839D5686810F00C0F07D06868C0F338
:101D50008100022809D16868C00306D4286880077A
:101D600014D52069012808D110E02069B0B1C6F867
:101D70000090FFF713FE074605E00AE1FFF70EFEAD
:101D8000C01B0228C4D828688007F7D52868616975
:101D900020F0F80040EAC10028600DE0C6F800809D
:101DA000FFF7FCFD074604E0FFF7F8FDC01B022823
:101DB00023D828688007F7D4207800072CD57948E5
:101DC000A169D9B1C0F80090FFF7E8FD074604E02B
:101DD000FFF7E4FDC01B02280FD8686A8007F7D51B
:101DE00071484FF4FA510068B0FBF1F0009000BF69
:101DF0000098411E0091FAD20EE080E0C0F8008009
:101E0000FFF7CCFD074604E0FFF7C8FDC01B022822
:101E100075D8686A8007F7D42078400760D5E869EC
:101E20000027C00008D4E86940F08050E861E86904
:101E3000012700F0805000905C480168C90513D468
:101E40000168834641F480710160FFF7A7FD824677
:101E500006E000BFFFF7A2FDA0EB0A0064284ED801
:101E6000DBF80000C005F5D5E06801280AD008B10C
:101E7000052813D0286A20F001002862286A20F083
:101E8000040002E0286A40F001002862E06841F2A4
:101E9000883B98B1FFF782FD82460BE0286A40F04C
:101EA00004002862EEE700BFFFF778FDA0EB0A010F
:101EB00059455AD8286A8007F6D50CE0FFF76EFD21
:101EC000824605E0FFF76AFDA0EB0A0159454CD8B0
:101ED000286A8007F6D41FB1E86920F08050E861D5
:101EE000E06988B36968C1F38101022944D00228FE
:101EF000C6F8608004D0FFF751FD044638E034E0B6
:101F0000FFF74CFD074604E0FFF748FDC01B022821
:101F10002BD828688001F7D4206AB0F5803F05D11E
:101F20006868A16820F4003008436860D4E90801BB
:101F30000843696821F4741108436860C6F860902A
:101F4000FFF72CFD044606E025E000BFFFF726FD65
:101F5000001B022809D828688001F7D51BE000BFC4
:101F6000FFF71CFD001B022802D90320BDE8F88FF3
:101F700028688001F4D40EE00128F7D06868226A4E
:101F800000F48031914204D1616A00F470108842FB
:101F900001D00120EAE70020E8E70000001002403D
:101FA000000042428004424248000020007000408D
:101FB00010B5401EB0F1807F01D3012010BD4FF05D
:101FC000E02460610F21601701F091F90020A06109
:101FD00007202061002010BD7047704770B590F851
:101FE0003C20012A26D0012480F83C40022280F8BF
:101FF0003D2003685A689D6822F070060A683243E3
:102000005A600D4B02689A4208D0B2F1804F05D059
:102010000A4B9A4202D00A4B9A4204D1496825F0F1
:1020200080031943916080F83D40002180F83C1006
:10203000084670BD022070BD002C01400004004025
:102040000008004010B5040003D094F83D0010B122
:1020500007E0012010BD002084F83C00204600F07D
:102060001FF8022084F83D00211D206800F09CFE2E
:10207000012084F8460084F83E0084F83F0084F88C
:10208000400084F8410084F8420084F8430084F85A
:10209000440084F8450084F83D00002010BD000095
:1020A00008B5114A01681148914211D1816941F482
:1020B000006181618069002200F4006000900121CC
:1020C0001920FFF7D7FCBDE808401920FFF7C4BC72
:1020D000074A914207D1C16941F00401C161C06959
:1020E00000F00400009008BD002C014000100240E8
:1020F0000008004090F83D10012901D001207047F0
:10210000022180F83D100168CA6842F00102CA60ED
:1021100000680B49884208D0B0F1804F05D00949CA
:10212000884202D00849884204D1816801F0070141
:10213000062903D0016841F00101016000207047C9
:10214000002C0140000400400008004070B5044627
:1021500090F83C000025012817D0012684F83C6047
:10216000022084F83D002068826822F0770222F481
:102170007F4282600868502838D00DDC20284FD07C
:1021800005DC90B3102811D14AE0022070BD302840
:1021900046D040280AD13BE060282FD070280DD0CF
:1021A000B0F5805F03D0B0F5005F12D0012584F850
:1021B0003D60002084F83C00284670BDCB68D1E922
:1021C0000121206800F039FE2068816841F0770124
:1021D00009E0CB68D1E90121206800F02EFE2068DB
:1021E000816841F480418160E1E719E0CA6849688B
:1021F000206800F0D7FE5021206806E0CA684968D0
:10220000206800F0E0FE6021206800F020FECEE7AC
:10221000CA684968206800F0C5FE40212068F4E7DC
:10222000226801461046F0E770472DE9F041044668
:102230000068C66805694FF00007A90713D5B10704
:1022400011D5F91E0161012020772068806980077F
:10225000204602D0FFF7E8FF04E000F0A5F8204692
:1022600000F037F92777680716D5700714D521686D
:102270006FF004000861022020772068806910F464
:10228000407F204602D0FFF7CFFF04E000F08CF83B
:10229000204600F01EF92777280715D5300713D5FB
:1022A00021686FF008000861042020772068C06969
:1022B0008007204602D0FFF7B7FF04E000F074F873
:1022C000204600F006F92777E80616D5F00614D563
:1022D00021686FF010000861082020772068C0692D
:1022E00010F4407F204602D0FFF79EFF04E000F08C
:1022F0005BF8204600F0EDF82777E80708D0F007F4
:1023000006D021686FF001000861204600F030F926
:10231000280608D5300606D521686FF080000861D0
:102320002046FFF759FE680608D5700606D52168D5
:102330006FF040000861204600F07EF9A8060AD53B
:10234000B00608D521686FF0200008612046BDE87E
:10235000F041FFF742BEBDE8F081000000B585B056
:102360000021009101910291039100680B4988427C
:1023700011D10B48816941F008018161806969468A
:1023800000F008000490402000900220019003908B
:102390000448FFF709FA05B000BD0000000800403E
:1023A00000100240000C0140704770B5044690F8E0
:1023B0003C0000260D4601280FD0012084F83C0087
:1023C0006AB1042A1DD0082A2FD00C2A3FD001263A
:1023D000002084F83C00304670BD022070BD2068AB
:1023E00000F03EFD2068816941F0080181612068AC
:1023F000816921F004018161206881692A691143A2
:1024000011E0206800F054FD2068816941F400610A
:1024100081612068816921F480618161206881691E
:102420002A6941EA02218161D2E7206800F06CFD4F
:102430002068C16941F00801C1612068C16921F0CB
:102440000401C1612068C1692A69114311E0206853
:1024500000F086FD2068C16941F40061C161206817
:10246000C16921F48061C1612068C1692A6941EABA
:102470000221C161ACE710B5040003D094F83D001F
:1024800010B107E0012010BD002084F83C00204678
:1024900000F01EF8022084F83D00211D206800F0A5
:1024A00083FC012084F8460084F83E0084F83F0055
:1024B00084F8400084F8410084F8420084F8430026
:1024C00084F8440084F8450084F83D00002010BDE5
:1024D0007047704710B50446022249B104290ED056
:1024E000082913D094F84100012816D0012010BD0E
:1024F00094F83E000128F9D184F83E200FE094F8CA
:102500003F000128F2D184F83F2008E094F8400011
:102510000128EBD184F8402001E084F84120012219
:10252000206800F07DFC0F492068884203D1426C8E
:1025300042F4004242642068884208D0B0F1804FE3
:1025400005D00949884202D00849884204D18168EF
:1025500001F00701062903D0016841F00101016083
:10256000002010BD002C0140000400400008004085
:1025700070B52C4900680968884251D12A4C2068FE
:1025800001F0A6F8E0626168E06A01F081F927498C
:1025900000F0BCFFA16800F0B9FF254901F0ACF8DC
:1025A0002063E06A6060206BA063A16BE06801F0CB
:1025B0006FF9E061A168E06901F09EF8616A00F0DE
:1025C00043FF6062216AE06901F062F9A16800F0EE
:1025D0009DFFA062A16AA06901F08EF8616A0646BB
:1025E000606901F089F8E1690546206901F084F825
:1025F000294600F029FF314600F026FF6063616B39
:102600000C48814200DD6063606B10F1FF4F01D325
:1026100000206063E0692062BDE8704000F054BBB8
:1026200070BD00004C000020000000200000B443FA
:10263000000070420000C8427047704770470000B9
:10264000F8B5016804460868CA684B6910F00F0FB6
:102650004FF0000559D003F0010602F4907737439C
:1026600065D0C10705D0D10503D5616C41F00101EA
:102670006164410705D5D90703D0616C41F00201BF
:102680006164810705D5D90703D0616C41F004016D
:102690006164010707D502F02001314303D0616C6A
:1026A00041F008016164616C00293AD0800604D5CC
:1026B000900602D5204600F041FD20684069616C1B
:1026C000C0F38010090700D460B3204600F001FD7C
:1026D00020684069400621D52068143050E8001F6A
:1026E00021F0400140E80012002AF5D1E06BA8B1CA
:1026F0006D494163E06BFEF7C9FE002811D0E06B25
:10270000416B01B0BDE8F040084783060FD5930642
:102710000DD52046BDE8F84000F010BD2046FFF77B
:102720008DFFF8BD2046FFF789FF6564F8BD266B75
:102730002023012E7CD1C6067AD5D60678D5086826
:102740004868009048694FF00206400640D5E16BAA
:10275000086840680004000CE8D0A28D8242E5D9E8
:10276000E085886920282DD020680C3050E8001FB3
:1027700021F4807140E80012002AF5D1206814305D
:1027800050E8001F21F0010140E80012002AF5D1B5
:102790002068143050E8001F21F0400140E800128A
:1027A000002AF5D184F84230256320680C3050E8C7
:1027B000001F21F0100140E80012002AF5D1E06B63
:1027C000FEF741FE6663A08DE18D401A81B22AE0DA
:1027D000A08DE18D401A81B2E08D0028A6D000299D
:1027E000A4D022680C3252E8000F20F4907042E826
:1027F0000007002FF5D12068143050E8002F22F098
:10280000010240E80027002FF5D184F8423025630B
:1028100020680C3050E8002F22F0100240E800231E
:10282000002BF5D166632046FFF707FFF8BDFFE7F1
:1028300005062BD5150629D594F841002128F5D198
:10284000A068B0F5805F01D12069B0B1206A411C59
:102850002162216800784860E08C401E0004000C72
:10286000E084E3D12068C16821F08001C160206864
:10287000C16841F04001C160D8E7206A0088C0F318
:1028800008004860206A801C2062E5E74006CDD53C
:102890005006CBD5CA68204622F04002CA6084F8B0
:1028A000413000F0CBF8C1E72D30000870B50400CE
:1028B00004D094F84100002510B106E0012070BD5D
:1028C00084F84050204600F023F8242084F841008A
:1028D0002068C16821F40051C160204600F090FCDE
:1028E0002068016921F4904101612068416921F06B
:1028F0002A0141612068C16841F40051C1606564EA
:10290000202084F8410084F842006563002070BDF7
:1029100070B586B000250646009501950295039591
:102920000068224988423FD12149886940F48040AB
:102930008861886900F480400490886940F0040050
:10294000886188691B4C00F00400049048150090D1
:10295000022001900320039069462046FEF724FFE1
:102960002015CDE90005694620460295FEF71CFFBB
:10297000124C114820601020C4E901058020C4E9F0
:1029800003056561A5612046E561FEF775FE08B1A6
:10299000FEF757FDB4630022012125206662FFF790
:1029A00069F82520FFF758F806B070BD00380140DF
:1029B0000010024000080140440002406401002071
:1029C0007047000070B5044690F84100202801D0FF
:1029D000022070BD49B342B32162A284E284002088
:1029E0006064212384F84130A56B114BAB62A56B69
:1029F000104BEB62A56B104B2B63A36B58632568E0
:102A000013462A1DA06BFEF765FE21686FF040009B
:102A100008602068143050E8001F41F0800140E851
:102A20000012002AF5D1002070BD012070BD000009
:102A300087300008C93000083D30000870477047F3
:102A4000FEE70000F0B585B0002420480094019412
:102A500002940394816941F004018161816901F06C
:102A600004010491816941F0080181618069184E77
:102A700000F008000490002218213046FEF789FF7C
:102A8000012514480095CDE90104134F69463846E5
:102A9000FEF78AFE0220CDE900046946384602941A
:102AA000FEF782FE1820CDE900050320CDE90240A3
:102AB00069463046FEF778FE002201210620FEF727
:102AC000D9FF0620FEF7C8FF05B0F0BD0010024098
:102AD000000C0140000021100008014010B586B034
:102AE0000024184800940194029403940494144917
:102AF0000594016040F27F21C0E901144FF4485170
:102B0000C0E9031444618461FFF79CFA08B172B60E
:102B1000FEE74FF48050009069460A48FFF716FB25
:102B200008B172B6FEE7049404A906480594FFF7BD
:102B300055FA002801D072B6FEE706B010BD0000BD
:102B4000002C01404C00002010B58EB000240794EA
:102B5000089409940A940B941C2168460C94FDF780
:102B600062FC1E481C4901603F21C0E90114632139
:102B7000C0E903148461FFF765FA08B172B6FEE795
:102B80004FF48050079007A91448FFF7DFFA08B107
:102B900072B6FEE71148FFF76EFC08B172B6FEE7A9
:102BA0000B940BA90D480C94FFF718FA08B172B6F4
:102BB000FEE76020CDE90004029400226946074840
:102BC0000494FFF7F2FB08B172B6FEE70348FFF783
:102BD000C5FB0EB010BD00000008004094000020AE
:102BE000FEE7FEE770B5046816460D46E06A401C35
:102BF00000F06EFD314600F07FFD094900F086FCD3
:102C000000F046FD2DB1042D05D0082D05D020641F
:102C100070BD606370BDA06370BDE06370BD0000F7
:102C20000000C842704700002DE9F04F89B083468C
:102C30001D4614468A46129800F0DAFB8046894603
:102C4000284600F0D5FB06460F46204600F0D0FB94
:102C500004460D46584600F0CBFB0DF1080CCDF8AC
:102C600000A08CE8F00302460B4608A11448FDF7CB
:102C7000BBFA1348FDF7B8FB09B01149BDE8F04FA6
:102C800082B2A1F14800FFF79DBE00005365743D7C
:102C9000252E662C2050756C73653D256C642C20A8
:102CA000563D252E32662C206572723D252E3266E9
:102CB0002C204F75743D252E32660D0A0000000051
:102CC000240100207047000010B5114C606BB0F576
:102CD000000F06DB00F08AF9626B00210D48FFF758
:102CE00081FF606B10F1FF4F08D300F08FF9606B2C
:102CF000002180F000420748FFF774FF606B10F07E
:102D0000FF4F03D1BDE8104000F006B810BD000031
:102D1000000000209400002010B5064C002208217D
:102D20002046FEF736FE20460022BDE81040102166
:102D3000FEF72FBE000C0140FEF736BE30B58FB057
:102D400028216846FDF76FFB14210AA8FDF76BFBED
:102D500002250120049000951020059000244FF4D6
:102D60006010CDE9084007956846FEF791FF08B16D
:102D700072B6FEE70F20CDE90A054FF48060CDE979
:102D80000C4002210AA80E94FEF7A6FE002801D0EE
:102D900072B6FEE70FB030BD704700000148FFF784
:102DA00044BA00004C000020F0B50268194B1A4CE0
:102DB0001A4D4FF08047984205D0B84203D0A04248
:102DC00001D0A84203D122F070064A6832439842EB
:102DD00005D0B84203D0A04201D0A84203D122F4CA
:102DE0004074CA6822434C6922F080022243026088
:102DF0008A68C2620A688262984201D109690163E5
:102E0000012141610169C90703D0016921F0010174
:102E10000161F0BD002C01400004004000080040AA
:102E200010B501F01F030121046A99408C4304622C
:102E3000016A9A401143016210BD10B5846842EAEC
:102E4000032224F47F440A432243826010BD826837
:102E500022F070020A4342F00701816070470000CF
:102E600030B5036A026A22F0010202624268846994
:102E700024F073050C682C4323F002058B682B4368
:102E80000A4DA8420BD123F00805CB6822F440720A
:102E90002B434D6923F0040315438A692A4342609A
:102EA000846149684163036230BD0000002C014029
:102EB00030B5026A036A23F0100303624368846931
:102EC0000D6824F4E64444EA05248D6822F02002CB
:102ED00042EA05120B4DA8420ED1CD6822F08002C5
:102EE00042EA05124D6923F4406343EA85038D6984
:102EF00022F0400243EA85034360846149688163AC
:102F0000026230BD002C014030B5036A026A22F42F
:102F1000807202624268C46923F4007324F073056E
:102F20000C682C438D6843EA05230C4DA8420ED152
:102F3000CD6823F4006343EA05234D6922F440522F
:102F400042EA05128D6923F4806342EA0512426069
:102F5000C4614968C163036230BD0000002C0140B8
:102F600030B5046A026A22F4805202624268C36980
:102F70000D6823F4E64343EA05238D6824F40054E6
:102F800044EA0534064DA84204D14D6922F480423A
:102F900042EA85124260C36149680164046230BD3F
:102FA000002C014010B5036A046A24F00104046295
:102FB000846924F0F00444EA021423F00A020A436C
:102FC0008461026210BD10B5036A046A24F0100423
:102FD0000462846923F0A00324F4704444EA0232BA
:102FE00043EA01118261016210BD000010B5064C78
:102FF000012208212046FEF7CCFC20460022BDE835
:1030000010401021FEF7C5BC000C014010B5064C65
:10301000002208212046FEF7BCFC20460122BDE824
:1030200010401021FEF7B5BC000C014010B5406AFD
:103030000021C185C184FFF701FB10BD70B5446A52
:103040002068406994F84110C0F3C0100025212980
:1030500004D118B1E584204600F062F82068406988
:1030600094F84210C0F38010222904D118B1E585EC
:10307000204600F02EF8606C40F01000606420469E
:10308000FFF7DCFA70BD10B50146406A09680968AF
:10309000890616D40021C1840168143151E8002F3B
:1030A00022F0800241E80023002BF5D101680C31A9
:1030B00051E8002F42F0400241E80023002BF5D1F7
:1030C00010BDFFF7BBFC10BD10B5406AFFF7B7FCA1
:1030D00010BD01680C3151E8002F22F4907241E8D4
:1030E0000023002BF5D10168143151E8002F22F0A4
:1030F000010241E80023002BF5D1016B012909D120
:1031000001680C3151E8002F22F0100241E8002341
:10311000002BF5D1202180F8421000210163704777
:1031200001680C3151E8002F22F0C00241E8002371
:10313000002BF5D1202180F84110704708B590F898
:103140004210222901D0022008BD82684FF480532A
:103150009A4201D1016921B1816A9A421BD04AB1D8
:103160000AE00268816A5268C2F308020A80816A32
:10317000891C08E0026972B10268526802F07F029D
:103180000A70816A491C8162C18D491E0904090CBB
:10319000C18503D01BE002685268F1E70168CA6884
:1031A00022F02002CA600168CA6822F48072CA60F4
:1031B00001684A6922F001024A61202180F8421028
:1031C00000214163026B012A03D0FFF7F9FB0020C5
:1031D00008BD016301680C3151E8002F22F0100294
:1031E00041E80023002BF5D101680A68D20602D518
:1031F0000A6849680091818DFFF71FFAE7E7000030
:1032000070B5044600680169E26821F44051114339
:1032100001612169A0680843616908432168CA689F
:1032200041F20C639A430243CA6020684169A26973
:1032300021F44071114341611E492068884202D146
:10324000FEF7F0FC01E0FEF7DDFC00EBC00101EB56
:103250000012606864218000B2FBF0F3B3FBF1F36D
:103260006FF018067343B2FBF0F5B2FBF0F605EB16
:103270008305322303EB0515B5FBF1F5B6FBF1F63B
:1032800005F0F00505EB0615B2FBF0F6B2FBF0F029
:10329000B0FBF1F06FF01802504306EB800003EB37
:1032A0000010B0FBF1F0216800F00F0028448860A6
:1032B00070BD0000003801400148FFF7C1B90000AF
:1032C000DC000020FEE7490050EAC12018BF0420BE
:1032D0004A0D18BF40F0010040F2FF72B2EB515F9F
:1032E00008BF40F00200012808BF05207047090709
:1032F000090E002804DB00F1E02080F8001470477C
:1033000000F00F0000F1E02080F8141D7047303805
:103310000A2801D2012070470020704708B5FEF747
:103320004BFBFFF70BFDFFF78DFB1F48416941F099
:10333000010141614069002200F001000090114646
:103340000E20FEF797FB0E20FEF786FB1848174964
:103350000C2201604FF4E131416000218160C160C5
:10336000C0E904128161C161FFF7A0FA08B172B629
:10337000FEE7FFF7E9FBFFF7B1FB0D4800214838F6
:10338000FFF7A8F80A489038FEF7B4FE094C606BC6
:103390000090E369226B2168E068FFF745FC642038
:1033A000FEF7D0F9F3E700000010024000380140BA
:1033B000DC0000200000002010B500290AD00878A9
:1033C000002807D005487844FDF70CFC002801D000
:1033D000002010BD0248784410BD00009606000091
:1033E0008E0600000808A0F500114FEA3101704771
:1033F00043004FEAD30C4FEA3C0C43401FBF400749
:103400000CF1605113F0FE4F70471CF0006F03D1B8
:1034100000200CF0004170470CF0004343EA50706C
:1034200010B540EACC0000F0E8F900BF00000092BF
:103430004FEA0001FFF7D6BF4FF000414FF0000008
:10344000A1F500217047000090EA010F48BF81F00C
:10345000004100F12482421A3CBF801A89184FEAC9
:10346000D0524FF07F4C1CEA410FA2EBD15318BF52
:103470009CEA026F00F03B804FF0004C4CEA0020C9
:103480004CEA012121FA03FC10EB0C0C1ED202F1D4
:10349000FF325FEA1C2040EBC25038BF70471CF07F
:1034A0007F0F4FEA400C18BFBCF17F4F38BF704709
:1034B000C3F12003994008BF20F00100BCF17F4F09
:1034C00038BF7047A0F1C04000F0DDB94FEA3C00C2
:1034D000000A40EBC25028BF1CF0FF0F4FEA400C1F
:1034E000E6D018BFBCF17F4F38BF7047EAE79CEACF
:1034F000026F05D010EA5C0F08BF00F00040704773
:1035000010B500F07AF900BF64FBBE3E4FF47F0CAB
:103510001CEAD0121EBF1CEAD11392EA0C0F93EAE8
:103520000C0F00F0858090EA010F48BF42F48072D2
:1035300040F4000C41F400002CF07F4120F07F406B
:1035400000B58142A2EB03020FF2081CACEB504E17
:10355000C0F100009EF800E04FEA4E0E00FB0EFCAA
:1035600038BF49004FEA2C1C02F5FA020CFB0EF39F
:103570004FEACE1E4FEA112C4FEAC1210EEB635EDB
:1035800042EB22420EFB0CFC4FEA1C5300FB0311E2
:103590004FEA112C4FEA01310EFB0CFC4FEADC4CD8
:1035A00000FB0C11C14228BF09184CEB03335DF836
:1035B00004EB10EB410143EBC250B2F57C0F38BF76
:1035C000704729D512F0F00F1CBF00F1C04000F089
:1035D00000407047008182838485868788898B8C30
:1035E0008D8E8F919293959697999A9C9D9FA0A26C
:1035F000A3A5A7A8AAACAEB0B2B3B5B7B9BCBEC0BC
:10360000C2C5C7C9CCCED1D4D7D9DCDFE2E6E9EC5C
:10361000F0F3F7FAFE0000004FEA400C0CF1807C5A
:10362000BCF17E4F28BF7047B0F1C04000F02BB90D
:1036300090EA010F0CEAD11348BF42F48072624550
:1036400038BF634507D213F47F0F16D080EA01001C
:1036500000F00040704710B500F0CFF8097EFC3E46
:1036600000F005B880EA010000F00040704780EAF1
:10367000010000F0004000F006B912F47F0F04BF13
:103680000248704780EA010000F0FDB80000C07FEA
:10369000C10DD1F19E0206DB4FEA002343F0004347
:1036A00023FA02F07047004207D54FEA4001B1F11A
:1036B000FE4F02D24FF00000704710B500F09DF8A9
:1036C00049922480002070476FEA20007047000074
:1036D000B0FA80F310FA03F2C3F19D030AD0D905C2
:1036E00001EB1220530638BF704700F1010008BFFC
:1036F00020F00100704700004FF47F0C1CEAD0124C
:103700001EBF1CEAD11392EA0C0F93EA0C0F00F0D3
:10371000478090EA010F48BF42F480724FF0004C9E
:103720004CEA00204CEA012102EB0302A0FB01134A
:10373000A2F50002002918BF43F001035B0028BF77
:103740004FEA330342EB22425FEA132C4CEBC250A8
:103750002EBFBCEB436FB2F57C0F70474FEA036C92
:10376000BCF1004F08BF20F00100B2F57C0F38BF5C
:1037700070470BD582F0FF0212F5803FC8BF70473B
:1037800000F1C040D8BF00F00040704700F5000CC9
:103790005FEA4C0C48BF7047B0F1C04000F073B80E
:1037A00090EA010F0CEAD11348BF42F480726245DF
:1037B00038BF634504D280EA010000F00040704742
:1037C00010B500F01AF800BF8900013E00F007B8FC
:1037D00000F009B85FEA410C5FEA1C6C08D080EA8F
:1037E000010000F050B85FEA400C5FEA1C6CF6D1B3
:1037F0004FF00040A0F5800070470EF1020E2EF051
:10380000030E5EF8044B244204D44FEA4102B2F1A5
:103810007F4F11D84FEA4003B3F17F4F0CD80ED140
:103820004FEAD07CB2F17F4F0CEB4C0C0CF1020C48
:1038300008BF4CEBD17C04E04FF0080C01E04FEAEC
:10384000D17C0CEB4C0324FA03F404F00704B4F12C
:10385000040C06D20EEB840CBDE810404CF0010CB9
:103860006047DFE80CF0070802024FF00040A0F5C7
:10387000800010BD0846420018BFD2F1807288BF98
:1038800000F0004010BDFF2141EAD050C005704754
:1038900090EA010F48BF81F000413FF5DCAD421ACC
:1038A00004D882F00042A0EB020011444FEAD0524B
:1038B0004FF07F4C1CEA410FA2EBD15318BF9CEA9A
:1038C000026F4AD04FF0004C4CEA00204CEA012134
:1038D00021FA03FCB0EB0C0C0FD412F0FE0F36D023
:1038E0005FEA4C001DD5001240EBC25038BF704754
:1038F0001CF03F0F18BF70470BE0A2F101025FEA16
:103900001C2040EBC25038BF70471CF07F0F18BF1F
:103910007047C3F12003994014BF401E20F00100FE
:10392000704780084FEA122308BF7047B0FA80FC46
:10393000A2EB0C02CCF1280C60FA0CF093EA122FE7
:1039400004BF00EBC25070474FEAC3707047130AC0
:103950005FEADC1008BF7047F6E79CEA026F04D00C
:1039600010EA5C0F08BF0020704710B5FFF745FF55
:1039700040DFF63E81F000407047FCF7B0BE010228
:1039800002030405060708090A0B0C0D0E0F1010A0
:1039900000000000000000000102030406070809FF
:1039A000000000000102030402400000000000A02B
:1039B0000000000005400000000000C800000000FA
:1039C0000C4000000000409C000000001940000076
:1039D0000020BCBE0000000034400000BFC91B8EA8
:1039E00000000004B5400000504BCFD06607E2CF86
:1039F000010000006C4100003E8251AADFEEA734B6
:103A000001000000D9420000DCB5A0E23A301F9767
:103A1000FFFFFFFFB4450000FD25A0C8E9A3C14F8B
:103A2000FFFFFFFFFF3F00000000008000000000DC
:103A3000FF3F00000000008000000000783A00080E
:103A4000000000204C00000028010008C43A0008D3
:103A50004C000020BC070000440100081C000000CE
:103A600043000000F8FFFFFF0C0000000E00000004
:103A70000F0000002E000000000000000000000009
:103A8000CDCC4C3E0000484200002040CDCC4C3E06
:103A90000AD7233C000000000000000000000000E6
:103AA0000000000000000000000000000000000016
:103AB00000000000010000001000000000000000F5
:043AC00000127A0076
:04000005080000ED02
:00000001FF
